{
  "_format": "hh-sol-artifact-1",
  "contractName": "PokemonSwap",
  "sourceName": "contracts/PokemonSwap.sol",
  "abi": [
    {
      "inputs": [
        {
          "internalType": "address",
          "name": "_pokemonCard",
          "type": "address"
        }
      ],
      "stateMutability": "nonpayable",
      "type": "constructor"
    },
    {
      "anonymous": false,
      "inputs": [
        {
          "indexed": true,
          "internalType": "address",
          "name": "previousOwner",
          "type": "address"
        },
        {
          "indexed": true,
          "internalType": "address",
          "name": "newOwner",
          "type": "address"
        }
      ],
      "name": "OwnershipTransferred",
      "type": "event"
    },
    {
      "anonymous": false,
      "inputs": [
        {
          "indexed": false,
          "internalType": "address",
          "name": "account",
          "type": "address"
        }
      ],
      "name": "Paused",
      "type": "event"
    },
    {
      "anonymous": false,
      "inputs": [
        {
          "indexed": true,
          "internalType": "uint256",
          "name": "swapId",
          "type": "uint256"
        },
        {
          "indexed": true,
          "internalType": "address",
          "name": "tokenAOwner",
          "type": "address"
        }
      ],
      "name": "SwapCancelled",
      "type": "event"
    },
    {
      "anonymous": false,
      "inputs": [
        {
          "indexed": true,
          "internalType": "uint256",
          "name": "swapId",
          "type": "uint256"
        },
        {
          "indexed": true,
          "internalType": "address",
          "name": "tokenAOwner",
          "type": "address"
        },
        {
          "indexed": false,
          "internalType": "uint256",
          "name": "tokenA",
          "type": "uint256"
        },
        {
          "indexed": true,
          "internalType": "address",
          "name": "tokenBOwner",
          "type": "address"
        },
        {
          "indexed": false,
          "internalType": "uint256",
          "name": "tokenB",
          "type": "uint256"
        }
      ],
      "name": "SwapCreated",
      "type": "event"
    },
    {
      "anonymous": false,
      "inputs": [
        {
          "indexed": true,
          "internalType": "uint256",
          "name": "swapId",
          "type": "uint256"
        },
        {
          "indexed": true,
          "internalType": "address",
          "name": "tokenAOwner",
          "type": "address"
        },
        {
          "indexed": true,
          "internalType": "address",
          "name": "tokenBOwner",
          "type": "address"
        }
      ],
      "name": "SwapExecuted",
      "type": "event"
    },
    {
      "anonymous": false,
      "inputs": [
        {
          "indexed": false,
          "internalType": "address",
          "name": "account",
          "type": "address"
        }
      ],
      "name": "Unpaused",
      "type": "event"
    },
    {
      "inputs": [
        {
          "internalType": "uint256",
          "name": "swapId",
          "type": "uint256"
        }
      ],
      "name": "acceptSwap",
      "outputs": [],
      "stateMutability": "nonpayable",
      "type": "function"
    },
    {
      "inputs": [
        {
          "internalType": "uint256",
          "name": "swapId",
          "type": "uint256"
        }
      ],
      "name": "cancelSwap",
      "outputs": [],
      "stateMutability": "nonpayable",
      "type": "function"
    },
    {
      "inputs": [
        {
          "internalType": "uint256",
          "name": "tokenA",
          "type": "uint256"
        },
        {
          "internalType": "address",
          "name": "tokenBOwner",
          "type": "address"
        },
        {
          "internalType": "uint256",
          "name": "tokenB",
          "type": "uint256"
        }
      ],
      "name": "createSwap",
      "outputs": [
        {
          "internalType": "uint256",
          "name": "swapId",
          "type": "uint256"
        }
      ],
      "stateMutability": "nonpayable",
      "type": "function"
    },
    {
      "inputs": [],
      "name": "nextSwapId",
      "outputs": [
        {
          "internalType": "uint256",
          "name": "",
          "type": "uint256"
        }
      ],
      "stateMutability": "view",
      "type": "function"
    },
    {
      "inputs": [],
      "name": "owner",
      "outputs": [
        {
          "internalType": "address",
          "name": "",
          "type": "address"
        }
      ],
      "stateMutability": "view",
      "type": "function"
    },
    {
      "inputs": [],
      "name": "pause",
      "outputs": [],
      "stateMutability": "nonpayable",
      "type": "function"
    },
    {
      "inputs": [],
      "name": "paused",
      "outputs": [
        {
          "internalType": "bool",
          "name": "",
          "type": "bool"
        }
      ],
      "stateMutability": "view",
      "type": "function"
    },
    {
      "inputs": [],
      "name": "pokemonCard",
      "outputs": [
        {
          "internalType": "contract IERC721",
          "name": "",
          "type": "address"
        }
      ],
      "stateMutability": "view",
      "type": "function"
    },
    {
      "inputs": [],
      "name": "renounceOwnership",
      "outputs": [],
      "stateMutability": "nonpayable",
      "type": "function"
    },
    {
      "inputs": [
        {
          "internalType": "uint256",
          "name": "",
          "type": "uint256"
        }
      ],
      "name": "swaps",
      "outputs": [
        {
          "internalType": "address",
          "name": "tokenAOwner",
          "type": "address"
        },
        {
          "internalType": "uint256",
          "name": "tokenA",
          "type": "uint256"
        },
        {
          "internalType": "address",
          "name": "tokenBOwner",
          "type": "address"
        },
        {
          "internalType": "uint256",
          "name": "tokenB",
          "type": "uint256"
        },
        {
          "internalType": "bool",
          "name": "executed",
          "type": "bool"
        }
      ],
      "stateMutability": "view",
      "type": "function"
    },
    {
      "inputs": [
        {
          "internalType": "address",
          "name": "newOwner",
          "type": "address"
        }
      ],
      "name": "transferOwnership",
      "outputs": [],
      "stateMutability": "nonpayable",
      "type": "function"
    },
    {
      "inputs": [],
      "name": "unpause",
      "outputs": [],
      "stateMutability": "nonpayable",
      "type": "function"
    }
  ],
  "bytecode": "0x60a0604052600160035534801561001557600080fd5b5060405161117e38038061117e833981016040819052610034916100b7565b60016000819055805460ff1916905561004c3361005d565b6001600160a01b03166080526100e7565b600180546001600160a01b03838116610100818102610100600160a81b031985161790945560405193909204169182907f8be0079c531659141344cd1fd0a4f28419497f9722a3daafe3b4186f6b6457e090600090a35050565b6000602082840312156100c957600080fd5b81516001600160a01b03811681146100e057600080fd5b9392505050565b60805161103d6101416000396000818161015a01528181610301015281816103f8015281816104860152818161050e015281816106c60152818161085d0152818161092a01528181610a390152610bb3015261103d6000f3fe608060405234801561001057600080fd5b50600436106100b45760003560e01c80638456cb59116100715780638456cb59146101235780638da5cb5b1461012b578063b81dd76e14610155578063e8065b8b1461017c578063f09c58291461018f578063f2fde38b1461021557600080fd5b80631bf33004146100b95780633f4ba83a146100ce57806354d6a2b7146100d65780635c975abb146100e957806368eb515514610104578063715018a61461011b575b600080fd5b6100cc6100c7366004610f1c565b610228565b005b6100cc6105db565b6100cc6100e4366004610f1c565b6105ed565b60015460ff1660405190151581526020015b60405180910390f35b61010d60035481565b6040519081526020016100fb565b6100cc6107ba565b6100cc6107cc565b60015461010090046001600160a01b03165b6040516001600160a01b0390911681526020016100fb565b61013d7f000000000000000000000000000000000000000000000000000000000000000081565b61010d61018a366004610f4a565b6107dc565b6101dc61019d366004610f1c565b6002602081905260009182526040909120805460018201549282015460038301546004909301546001600160a01b039283169493919092169160ff1685565b604080516001600160a01b039687168152602081019590955292909416918301919091526060820152901515608082015260a0016100fb565b6100cc610223366004610f82565b610c77565b610230610ced565b610238610d33565b6000818152600260205260409020600481015460ff16156102985760405162461bcd60e51b815260206004820152601560248201527414ddd85c08185b1c9958591e48195e1958dd5d1959605a1b60448201526064015b60405180910390fd5b60028101546001600160a01b031633146102eb5760405162461bcd60e51b81526020600482015260146024820152732737ba103a3432903a37b5b2b7211037bbb732b960611b604482015260640161028f565b600381015460405163020604bf60e21b815230917f00000000000000000000000000000000000000000000000000000000000000006001600160a01b03169163081812fc916103409160040190815260200190565b602060405180830381865afa15801561035d573d6000803e3d6000fd5b505050506040513d601f19601f820116820180604052508101906103819190610f9f565b6001600160a01b0316146103d75760405162461bcd60e51b815260206004820181905260248201527f436f6e7472616374206e6f7420617070726f76656420666f7220746f6b656e42604482015260640161028f565b600281015460038201546040516323b872dd60e01b81526001600160a01b037f00000000000000000000000000000000000000000000000000000000000000008116936323b872dd936104339391909216913091600401610fbc565b600060405180830381600087803b15801561044d57600080fd5b505af1158015610461573d6000803e3d6000fd5b50505050600281015460018201546040516323b872dd60e01b81526001600160a01b037f00000000000000000000000000000000000000000000000000000000000000008116936323b872dd936104c093309390921691600401610fbc565b600060405180830381600087803b1580156104da57600080fd5b505af11580156104ee573d6000803e3d6000fd5b5050825460038401546040516323b872dd60e01b81526001600160a01b037f0000000000000000000000000000000000000000000000000000000000000000811695506323b872dd9450610549933093911691600401610fbc565b600060405180830381600087803b15801561056357600080fd5b505af1158015610577573d6000803e3d6000fd5b50505060048201805460ff1916600117905550600281015481546040516001600160a01b0392831692919091169084907faeb3cc262d96f6543a351f1bec4a5363e20a4ae21f4cef49b28df1af281f277a90600090a4506105d86001600055565b50565b6105e3610d8c565b6105eb610dec565b565b6105f5610ced565b6105fd610d33565b6000818152600260205260409020600481015460ff16156106585760405162461bcd60e51b815260206004820152601560248201527414ddd85c08185b1c9958591e48195e1958dd5d1959605a1b604482015260640161028f565b80546001600160a01b031633146106a85760405162461bcd60e51b81526020600482015260146024820152732737ba103a3432903a37b5b2b7209037bbb732b960611b604482015260640161028f565b805460018201546040516323b872dd60e01b81526001600160a01b037f00000000000000000000000000000000000000000000000000000000000000008116936323b872dd936107019330939290921691600401610fbc565b600060405180830381600087803b15801561071b57600080fd5b505af115801561072f573d6000803e3d6000fd5b505050600083815260026020819052604080832080546001600160a01b03199081168255600182018590559281018054909316909255600382018390556004909101805460ff19169055835490516001600160a01b03909116925084917fc9660176d761dbcab77c697281268e30dffb9a42cafafcbe4e3a58fc44496e3291a3506105d86001600055565b6107c2610d8c565b6105eb6000610e3e565b6107d4610d8c565b6105eb610e98565b60006107e6610ced565b6107ee610d33565b81840361083d5760405162461bcd60e51b815260206004820152601a60248201527f43616e6e6f742073776170207468652073616d6520746f6b656e000000000000604482015260640161028f565b6040516331a9108f60e11b81526004810185905233906001600160a01b037f00000000000000000000000000000000000000000000000000000000000000001690636352211e90602401602060405180830381865afa1580156108a4573d6000803e3d6000fd5b505050506040513d601f19601f820116820180604052508101906108c89190610f9f565b6001600160a01b03161461091e5760405162461bcd60e51b815260206004820152601760248201527f4e6f7420746865206f776e6572206f6620746f6b656e41000000000000000000604482015260640161028f565b826001600160a01b03167f00000000000000000000000000000000000000000000000000000000000000006001600160a01b0316636352211e846040518263ffffffff1660e01b815260040161097691815260200190565b602060405180830381865afa158015610993573d6000803e3d6000fd5b505050506040513d601f19601f820116820180604052508101906109b79190610f9f565b6001600160a01b031614610a195760405162461bcd60e51b815260206004820152602360248201527f546f6b656e42206e6f74206f776e656420627920737065636966696564206f776044820152623732b960e91b606482015260840161028f565b60405163020604bf60e21b81526004810185905230906001600160a01b037f0000000000000000000000000000000000000000000000000000000000000000169063081812fc90602401602060405180830381865afa158015610a80573d6000803e3d6000fd5b505050506040513d601f19601f82011682018060405250810190610aa49190610f9f565b6001600160a01b031614610afa5760405162461bcd60e51b815260206004820181905260248201527f436f6e7472616374206e6f7420617070726f76656420666f7220746f6b656e41604482015260640161028f565b60038054906000610b0a83610fe0565b909155506040805160a0810182523380825260208083018981526001600160a01b03898116858701908152606086018a81526000608088018181528a825260029687905290899020975188549085166001600160a01b03199182161789559451600189015591519487018054958416959094169490941790925591516003850155516004938401805491151560ff1990921691909117905592516323b872dd60e01b81529394507f0000000000000000000000000000000000000000000000000000000000000000909216926323b872dd92610bec92909130918a9101610fbc565b600060405180830381600087803b158015610c0657600080fd5b505af1158015610c1a573d6000803e3d6000fd5b505060408051878152602081018690526001600160a01b038716935033925084917fd5a3d76bf433bc593af6164f478195f6a86a1cbfd8203166161841c433fa659f910160405180910390a4610c706001600055565b9392505050565b610c7f610d8c565b6001600160a01b038116610ce45760405162461bcd60e51b815260206004820152602660248201527f4f776e61626c653a206e6577206f776e657220697320746865207a65726f206160448201526564647265737360d01b606482015260840161028f565b6105d881610e3e565b60015460ff16156105eb5760405162461bcd60e51b815260206004820152601060248201526f14185d5cd8589b194e881c185d5cd95960821b604482015260640161028f565b600260005403610d855760405162461bcd60e51b815260206004820152601f60248201527f5265656e7472616e637947756172643a207265656e7472616e742063616c6c00604482015260640161028f565b6002600055565b6001546001600160a01b036101009091041633146105eb5760405162461bcd60e51b815260206004820181905260248201527f4f776e61626c653a2063616c6c6572206973206e6f7420746865206f776e6572604482015260640161028f565b610df4610ed3565b6001805460ff191690557f5db9ee0a495bf2e6ff9c91a7834c1ba4fdd244a5e8aa4e537bd38aeae4b073aa335b6040516001600160a01b03909116815260200160405180910390a1565b600180546001600160a01b03838116610100818102610100600160a81b031985161790945560405193909204169182907f8be0079c531659141344cd1fd0a4f28419497f9722a3daafe3b4186f6b6457e090600090a35050565b610ea0610ced565b6001805460ff1916811790557f62e78cea01bee320cd4e420270b5ea74000d11b0c9f74754ebdbfc544b05a25833610e21565b60015460ff166105eb5760405162461bcd60e51b815260206004820152601460248201527314185d5cd8589b194e881b9bdd081c185d5cd95960621b604482015260640161028f565b600060208284031215610f2e57600080fd5b5035919050565b6001600160a01b03811681146105d857600080fd5b600080600060608486031215610f5f57600080fd5b833592506020840135610f7181610f35565b929592945050506040919091013590565b600060208284031215610f9457600080fd5b8135610c7081610f35565b600060208284031215610fb157600080fd5b8151610c7081610f35565b6001600160a01b039384168152919092166020820152604081019190915260600190565b60006001820161100057634e487b7160e01b600052601160045260246000fd5b506001019056fea2646970667358221220f58df0bc8ddc458e277eae65b3df65d37e81d7853b6044c07a78d9215d53a61a64736f6c634300081c0033",
  "linkReferences": {},
  "deployedLinkReferences": {}
}