{
  "_format": "hh-sol-artifact-1",
  "contractName": "PokemonCard",
  "sourceName": "contracts/PokemonCard.sol",
  "abi": [
    {
      "inputs": [],
      "stateMutability": "nonpayable",
      "type": "constructor"
    },
    {
      "anonymous": false,
      "inputs": [
        {
          "indexed": true,
          "internalType": "address",
          "name": "owner",
          "type": "address"
        },
        {
          "indexed": true,
          "internalType": "address",
          "name": "approved",
          "type": "address"
        },
        {
          "indexed": true,
          "internalType": "uint256",
          "name": "tokenId",
          "type": "uint256"
        }
      ],
      "name": "Approval",
      "type": "event"
    },
    {
      "anonymous": false,
      "inputs": [
        {
          "indexed": true,
          "internalType": "address",
          "name": "owner",
          "type": "address"
        },
        {
          "indexed": true,
          "internalType": "address",
          "name": "operator",
          "type": "address"
        },
        {
          "indexed": false,
          "internalType": "bool",
          "name": "approved",
          "type": "bool"
        }
      ],
      "name": "ApprovalForAll",
      "type": "event"
    },
    {
      "anonymous": false,
      "inputs": [
        {
          "indexed": false,
          "internalType": "uint256",
          "name": "_fromTokenId",
          "type": "uint256"
        },
        {
          "indexed": false,
          "internalType": "uint256",
          "name": "_toTokenId",
          "type": "uint256"
        }
      ],
      "name": "BatchMetadataUpdate",
      "type": "event"
    },
    {
      "anonymous": false,
      "inputs": [
        {
          "indexed": false,
          "internalType": "uint256",
          "name": "_tokenId",
          "type": "uint256"
        }
      ],
      "name": "MetadataUpdate",
      "type": "event"
    },
    {
      "anonymous": false,
      "inputs": [
        {
          "indexed": true,
          "internalType": "address",
          "name": "previousOwner",
          "type": "address"
        },
        {
          "indexed": true,
          "internalType": "address",
          "name": "newOwner",
          "type": "address"
        }
      ],
      "name": "OwnershipTransferred",
      "type": "event"
    },
    {
      "anonymous": false,
      "inputs": [
        {
          "indexed": false,
          "internalType": "address",
          "name": "account",
          "type": "address"
        }
      ],
      "name": "Paused",
      "type": "event"
    },
    {
      "anonymous": false,
      "inputs": [
        {
          "indexed": true,
          "internalType": "address",
          "name": "from",
          "type": "address"
        },
        {
          "indexed": true,
          "internalType": "address",
          "name": "to",
          "type": "address"
        },
        {
          "indexed": true,
          "internalType": "uint256",
          "name": "tokenId",
          "type": "uint256"
        }
      ],
      "name": "Transfer",
      "type": "event"
    },
    {
      "anonymous": false,
      "inputs": [
        {
          "indexed": false,
          "internalType": "address",
          "name": "account",
          "type": "address"
        }
      ],
      "name": "Unpaused",
      "type": "event"
    },
    {
      "inputs": [
        {
          "internalType": "address",
          "name": "to",
          "type": "address"
        },
        {
          "internalType": "uint256",
          "name": "tokenId",
          "type": "uint256"
        }
      ],
      "name": "approve",
      "outputs": [],
      "stateMutability": "nonpayable",
      "type": "function"
    },
    {
      "inputs": [
        {
          "internalType": "address",
          "name": "owner",
          "type": "address"
        }
      ],
      "name": "balanceOf",
      "outputs": [
        {
          "internalType": "uint256",
          "name": "",
          "type": "uint256"
        }
      ],
      "stateMutability": "view",
      "type": "function"
    },
    {
      "inputs": [
        {
          "internalType": "uint256",
          "name": "tokenId",
          "type": "uint256"
        }
      ],
      "name": "getApproved",
      "outputs": [
        {
          "internalType": "address",
          "name": "",
          "type": "address"
        }
      ],
      "stateMutability": "view",
      "type": "function"
    },
    {
      "inputs": [
        {
          "internalType": "address",
          "name": "owner",
          "type": "address"
        },
        {
          "internalType": "address",
          "name": "operator",
          "type": "address"
        }
      ],
      "name": "isApprovedForAll",
      "outputs": [
        {
          "internalType": "bool",
          "name": "",
          "type": "bool"
        }
      ],
      "stateMutability": "view",
      "type": "function"
    },
    {
      "inputs": [
        {
          "internalType": "address",
          "name": "to",
          "type": "address"
        },
        {
          "internalType": "string",
          "name": "uri",
          "type": "string"
        }
      ],
      "name": "mint",
      "outputs": [],
      "stateMutability": "nonpayable",
      "type": "function"
    },
    {
      "inputs": [],
      "name": "name",
      "outputs": [
        {
          "internalType": "string",
          "name": "",
          "type": "string"
        }
      ],
      "stateMutability": "view",
      "type": "function"
    },
    {
      "inputs": [],
      "name": "nextTokenId",
      "outputs": [
        {
          "internalType": "uint256",
          "name": "",
          "type": "uint256"
        }
      ],
      "stateMutability": "view",
      "type": "function"
    },
    {
      "inputs": [],
      "name": "owner",
      "outputs": [
        {
          "internalType": "address",
          "name": "",
          "type": "address"
        }
      ],
      "stateMutability": "view",
      "type": "function"
    },
    {
      "inputs": [
        {
          "internalType": "uint256",
          "name": "tokenId",
          "type": "uint256"
        }
      ],
      "name": "ownerOf",
      "outputs": [
        {
          "internalType": "address",
          "name": "",
          "type": "address"
        }
      ],
      "stateMutability": "view",
      "type": "function"
    },
    {
      "inputs": [],
      "name": "pause",
      "outputs": [],
      "stateMutability": "nonpayable",
      "type": "function"
    },
    {
      "inputs": [],
      "name": "paused",
      "outputs": [
        {
          "internalType": "bool",
          "name": "",
          "type": "bool"
        }
      ],
      "stateMutability": "view",
      "type": "function"
    },
    {
      "inputs": [],
      "name": "renounceOwnership",
      "outputs": [],
      "stateMutability": "nonpayable",
      "type": "function"
    },
    {
      "inputs": [
        {
          "internalType": "address",
          "name": "from",
          "type": "address"
        },
        {
          "internalType": "address",
          "name": "to",
          "type": "address"
        },
        {
          "internalType": "uint256",
          "name": "tokenId",
          "type": "uint256"
        }
      ],
      "name": "safeTransferFrom",
      "outputs": [],
      "stateMutability": "nonpayable",
      "type": "function"
    },
    {
      "inputs": [
        {
          "internalType": "address",
          "name": "from",
          "type": "address"
        },
        {
          "internalType": "address",
          "name": "to",
          "type": "address"
        },
        {
          "internalType": "uint256",
          "name": "tokenId",
          "type": "uint256"
        },
        {
          "internalType": "bytes",
          "name": "data",
          "type": "bytes"
        }
      ],
      "name": "safeTransferFrom",
      "outputs": [],
      "stateMutability": "nonpayable",
      "type": "function"
    },
    {
      "inputs": [
        {
          "internalType": "address",
          "name": "operator",
          "type": "address"
        },
        {
          "internalType": "bool",
          "name": "approved",
          "type": "bool"
        }
      ],
      "name": "setApprovalForAll",
      "outputs": [],
      "stateMutability": "nonpayable",
      "type": "function"
    },
    {
      "inputs": [
        {
          "internalType": "bytes4",
          "name": "interfaceId",
          "type": "bytes4"
        }
      ],
      "name": "supportsInterface",
      "outputs": [
        {
          "internalType": "bool",
          "name": "",
          "type": "bool"
        }
      ],
      "stateMutability": "view",
      "type": "function"
    },
    {
      "inputs": [],
      "name": "symbol",
      "outputs": [
        {
          "internalType": "string",
          "name": "",
          "type": "string"
        }
      ],
      "stateMutability": "view",
      "type": "function"
    },
    {
      "inputs": [
        {
          "internalType": "uint256",
          "name": "tokenId",
          "type": "uint256"
        }
      ],
      "name": "tokenURI",
      "outputs": [
        {
          "internalType": "string",
          "name": "",
          "type": "string"
        }
      ],
      "stateMutability": "view",
      "type": "function"
    },
    {
      "inputs": [
        {
          "internalType": "address",
          "name": "from",
          "type": "address"
        },
        {
          "internalType": "address",
          "name": "to",
          "type": "address"
        },
        {
          "internalType": "uint256",
          "name": "tokenId",
          "type": "uint256"
        }
      ],
      "name": "transferFrom",
      "outputs": [],
      "stateMutability": "nonpayable",
      "type": "function"
    },
    {
      "inputs": [
        {
          "internalType": "address",
          "name": "newOwner",
          "type": "address"
        }
      ],
      "name": "transferOwnership",
      "outputs": [],
      "stateMutability": "nonpayable",
      "type": "function"
    },
    {
      "inputs": [],
      "name": "unpause",
      "outputs": [],
      "stateMutability": "nonpayable",
      "type": "function"
    }
  ],
  "bytecode": "0x6080604052600160085534801561001557600080fd5b506040518060400160405280600b81526020016a141bdad95b5bdb90d85c9960aa1b81525060405180604001604052806003815260200162504f4b60e81b81525081600090816100659190610186565b5060016100728282610186565b50506007805460ff19169055506100883361008d565b610244565b600780546001600160a01b03838116610100818102610100600160a81b031985161790945560405193909204169182907f8be0079c531659141344cd1fd0a4f28419497f9722a3daafe3b4186f6b6457e090600090a35050565b634e487b7160e01b600052604160045260246000fd5b600181811c9082168061011157607f821691505b60208210810361013157634e487b7160e01b600052602260045260246000fd5b50919050565b601f82111561018157806000526020600020601f840160051c8101602085101561015e5750805b601f840160051c820191505b8181101561017e576000815560010161016a565b50505b505050565b81516001600160401b0381111561019f5761019f6100e7565b6101b3816101ad84546100fd565b84610137565b6020601f8211600181146101e757600083156101cf5750848201515b600019600385901b1c1916600184901b17845561017e565b600084815260208120601f198516915b8281101561021757878501518255602094850194600190920191016101f7565b50848210156102355786840151600019600387901b60f8161c191681555b50505050600190811b01905550565b611a0d806102536000396000f3fe608060405234801561001057600080fd5b50600436106101375760003560e01c8063715018a6116100b8578063a22cb4651161007c578063a22cb4651461025c578063b88d4fde1461026f578063c87b56dd14610282578063d0def52114610295578063e985e9c5146102a8578063f2fde38b146102e457600080fd5b8063715018a61461022657806375794a3c1461022e5780638456cb59146102365780638da5cb5b1461023e57806395d89b411461025457600080fd5b80633f4ba83a116100ff5780633f4ba83a146101cc57806342842e0e146101d45780635c975abb146101e75780636352211e146101f257806370a082311461020557600080fd5b806301ffc9a71461013c57806306fdde0314610164578063081812fc14610179578063095ea7b3146101a457806323b872dd146101b9575b600080fd5b61014f61014a3660046113e8565b6102f7565b60405190151581526020015b60405180910390f35b61016c610322565b60405161015b9190611455565b61018c610187366004611468565b6103b4565b6040516001600160a01b03909116815260200161015b565b6101b76101b236600461149d565b6103db565b005b6101b76101c73660046114c7565b6104f5565b6101b7610526565b6101b76101e23660046114c7565b610538565b60075460ff1661014f565b61018c610200366004611468565b610553565b610218610213366004611504565b6105b3565b60405190815260200161015b565b6101b7610639565b600854610218565b6101b761064b565b60075461010090046001600160a01b031661018c565b61016c61065b565b6101b761026a36600461151f565b61066a565b6101b761027d3660046115eb565b610679565b61016c610290366004611468565b6106b1565b6101b76102a3366004611667565b6106bc565b61014f6102b63660046116c9565b6001600160a01b03918216600090815260056020908152604080832093909416825291909152205460ff1690565b6101b76102f2366004611504565b6106f5565b60006001600160e01b03198216632483248360e11b148061031c575061031c8261076e565b92915050565b606060008054610331906116fc565b80601f016020809104026020016040519081016040528092919081815260200182805461035d906116fc565b80156103aa5780601f1061037f576101008083540402835291602001916103aa565b820191906000526020600020905b81548152906001019060200180831161038d57829003601f168201915b5050505050905090565b60006103bf826107be565b506000908152600460205260409020546001600160a01b031690565b60006103e682610553565b9050806001600160a01b0316836001600160a01b0316036104585760405162461bcd60e51b815260206004820152602160248201527f4552433732313a20617070726f76616c20746f2063757272656e74206f776e656044820152603960f91b60648201526084015b60405180910390fd5b336001600160a01b0382161480610474575061047481336102b6565b6104e65760405162461bcd60e51b815260206004820152603d60248201527f4552433732313a20617070726f76652063616c6c6572206973206e6f7420746f60448201527f6b656e206f776e6572206f7220617070726f76656420666f7220616c6c000000606482015260840161044f565b6104f0838361081d565b505050565b6104ff338261088b565b61051b5760405162461bcd60e51b815260040161044f90611736565b6104f083838361090a565b61052e610a6e565b610536610ace565b565b6104f083838360405180602001604052806000815250610679565b6000818152600260205260408120546001600160a01b03168061031c5760405162461bcd60e51b8152602060048201526018602482015277115490cdcc8c4e881a5b9d985b1a59081d1bdad95b88125160421b604482015260640161044f565b60006001600160a01b03821661061d5760405162461bcd60e51b815260206004820152602960248201527f4552433732313a2061646472657373207a65726f206973206e6f7420612076616044820152683634b21037bbb732b960b91b606482015260840161044f565b506001600160a01b031660009081526003602052604090205490565b610641610a6e565b6105366000610b20565b610653610a6e565b610536610b7a565b606060018054610331906116fc565b610675338383610bb7565b5050565b610683338361088b565b61069f5760405162461bcd60e51b815260040161044f90611736565b6106ab84848484610c85565b50505050565b606061031c82610cb8565b6106c4610dc0565b6106d082600854610e06565b6106dc60085482610e20565b600880549060006106ec83611783565b91905055505050565b6106fd610a6e565b6001600160a01b0381166107625760405162461bcd60e51b815260206004820152602660248201527f4f776e61626c653a206e6577206f776e657220697320746865207a65726f206160448201526564647265737360d01b606482015260840161044f565b61076b81610b20565b50565b60006001600160e01b031982166380ac58cd60e01b148061079f57506001600160e01b03198216635b5e139f60e01b145b8061031c57506301ffc9a760e01b6001600160e01b031983161461031c565b6000818152600260205260409020546001600160a01b031661076b5760405162461bcd60e51b8152602060048201526018602482015277115490cdcc8c4e881a5b9d985b1a59081d1bdad95b88125160421b604482015260640161044f565b600081815260046020526040902080546001600160a01b0319166001600160a01b038416908117909155819061085282610553565b6001600160a01b03167f8c5be1e5ebec7d5bd14f71427d1e84f3dd0314c0f7b2291e5b200ac8c7c3b92560405160405180910390a45050565b60008061089783610553565b9050806001600160a01b0316846001600160a01b031614806108de57506001600160a01b0380821660009081526005602090815260408083209388168352929052205460ff165b806109025750836001600160a01b03166108f7846103b4565b6001600160a01b0316145b949350505050565b826001600160a01b031661091d82610553565b6001600160a01b0316146109435760405162461bcd60e51b815260040161044f906117aa565b6001600160a01b0382166109a55760405162461bcd60e51b8152602060048201526024808201527f4552433732313a207472616e7366657220746f20746865207a65726f206164646044820152637265737360e01b606482015260840161044f565b826001600160a01b03166109b882610553565b6001600160a01b0316146109de5760405162461bcd60e51b815260040161044f906117aa565b600081815260046020908152604080832080546001600160a01b03199081169091556001600160a01b0387811680865260038552838620805460001901905590871680865283862080546001019055868652600290945282852080549092168417909155905184937fddf252ad1be2c89b69c2b068fc378daa952ba7f163c4a11628f55a4df523b3ef91a4505050565b6007546001600160a01b036101009091041633146105365760405162461bcd60e51b815260206004820181905260248201527f4f776e61626c653a2063616c6c6572206973206e6f7420746865206f776e6572604482015260640161044f565b610ad6610eeb565b6007805460ff191690557f5db9ee0a495bf2e6ff9c91a7834c1ba4fdd244a5e8aa4e537bd38aeae4b073aa335b6040516001600160a01b03909116815260200160405180910390a1565b600780546001600160a01b03838116610100818102610100600160a81b031985161790945560405193909204169182907f8be0079c531659141344cd1fd0a4f28419497f9722a3daafe3b4186f6b6457e090600090a35050565b610b82610dc0565b6007805460ff191660011790557f62e78cea01bee320cd4e420270b5ea74000d11b0c9f74754ebdbfc544b05a258610b033390565b816001600160a01b0316836001600160a01b031603610c185760405162461bcd60e51b815260206004820152601960248201527f4552433732313a20617070726f766520746f2063616c6c657200000000000000604482015260640161044f565b6001600160a01b03838116600081815260056020908152604080832094871680845294825291829020805460ff191686151590811790915591519182527f17307eab39ab6107e8899845ad3d59bd9653f200f220920489ca2b5937696c31910160405180910390a3505050565b610c9084848461090a565b610c9c84848484610f34565b6106ab5760405162461bcd60e51b815260040161044f906117ef565b6060610cc3826107be565b60008281526006602052604081208054610cdc906116fc565b80601f0160208091040260200160405190810160405280929190818152602001828054610d08906116fc565b8015610d555780601f10610d2a57610100808354040283529160200191610d55565b820191906000526020600020905b815481529060010190602001808311610d3857829003601f168201915b505050505090506000610d7360408051602081019091526000815290565b90508051600003610d85575092915050565b815115610db7578082604051602001610d9f929190611841565b60405160208183030381529060405292505050919050565b61090284611035565b60075460ff16156105365760405162461bcd60e51b815260206004820152601060248201526f14185d5cd8589b194e881c185d5cd95960821b604482015260640161044f565b6106758282604051806020016040528060008152506110a9565b6000828152600260205260409020546001600160a01b0316610e9b5760405162461bcd60e51b815260206004820152602e60248201527f45524337323155524953746f726167653a2055524920736574206f66206e6f6e60448201526d32bc34b9ba32b73a103a37b5b2b760911b606482015260840161044f565b6000828152600660205260409020610eb382826118be565b506040518281527ff8e1a15aba9398e019f0b49df1a4fde98ee17ae345cb5f6b5e2c27f5033e8ce79060200160405180910390a15050565b60075460ff166105365760405162461bcd60e51b815260206004820152601460248201527314185d5cd8589b194e881b9bdd081c185d5cd95960621b604482015260640161044f565b60006001600160a01b0384163b1561102a57604051630a85bd0160e11b81526001600160a01b0385169063150b7a0290610f7890339089908890889060040161197d565b6020604051808303816000875af1925050508015610fb3575060408051601f3d908101601f19168201909252610fb0918101906119ba565b60015b611010573d808015610fe1576040519150601f19603f3d011682016040523d82523d6000602084013e610fe6565b606091505b5080516000036110085760405162461bcd60e51b815260040161044f906117ef565b805181602001fd5b6001600160e01b031916630a85bd0160e11b149050610902565b506001949350505050565b6060611040826107be565b600061105760408051602081019091526000815290565b9050600081511161107757604051806020016040528060008152506110a2565b80611081846110dc565b604051602001611092929190611841565b6040516020818303038152906040525b9392505050565b6110b3838361116f565b6110c06000848484610f34565b6104f05760405162461bcd60e51b815260040161044f906117ef565b606060006110e9836112fa565b600101905060008167ffffffffffffffff8111156111095761110961155b565b6040519080825280601f01601f191660200182016040528015611133576020820181803683370190505b5090508181016020015b600019016f181899199a1a9b1b9c1cb0b131b232b360811b600a86061a8153600a850494508461113d57509392505050565b6001600160a01b0382166111c55760405162461bcd60e51b815260206004820181905260248201527f4552433732313a206d696e7420746f20746865207a65726f2061646472657373604482015260640161044f565b6000818152600260205260409020546001600160a01b03161561122a5760405162461bcd60e51b815260206004820152601c60248201527f4552433732313a20746f6b656e20616c7265616479206d696e74656400000000604482015260640161044f565b6000818152600260205260409020546001600160a01b03161561128f5760405162461bcd60e51b815260206004820152601c60248201527f4552433732313a20746f6b656e20616c7265616479206d696e74656400000000604482015260640161044f565b6001600160a01b038216600081815260036020908152604080832080546001019055848352600290915280822080546001600160a01b0319168417905551839291907fddf252ad1be2c89b69c2b068fc378daa952ba7f163c4a11628f55a4df523b3ef908290a45050565b60008072184f03e93ff9f4daa797ed6e38ed64bf6a1f0160401b83106113395772184f03e93ff9f4daa797ed6e38ed64bf6a1f0160401b830492506040015b6d04ee2d6d415b85acef81000000008310611365576d04ee2d6d415b85acef8100000000830492506020015b662386f26fc10000831061138357662386f26fc10000830492506010015b6305f5e100831061139b576305f5e100830492506008015b61271083106113af57612710830492506004015b606483106113c1576064830492506002015b600a831061031c5760010192915050565b6001600160e01b03198116811461076b57600080fd5b6000602082840312156113fa57600080fd5b81356110a2816113d2565b60005b83811015611420578181015183820152602001611408565b50506000910152565b60008151808452611441816020860160208601611405565b601f01601f19169290920160200192915050565b6020815260006110a26020830184611429565b60006020828403121561147a57600080fd5b5035919050565b80356001600160a01b038116811461149857600080fd5b919050565b600080604083850312156114b057600080fd5b6114b983611481565b946020939093013593505050565b6000806000606084860312156114dc57600080fd5b6114e584611481565b92506114f360208501611481565b929592945050506040919091013590565b60006020828403121561151657600080fd5b6110a282611481565b6000806040838503121561153257600080fd5b61153b83611481565b91506020830135801515811461155057600080fd5b809150509250929050565b634e487b7160e01b600052604160045260246000fd5b60008067ffffffffffffffff84111561158c5761158c61155b565b50604051601f19601f85018116603f0116810181811067ffffffffffffffff821117156115bb576115bb61155b565b6040528381529050808284018510156115d357600080fd5b83836020830137600060208583010152509392505050565b6000806000806080858703121561160157600080fd5b61160a85611481565b935061161860208601611481565b925060408501359150606085013567ffffffffffffffff81111561163b57600080fd5b8501601f8101871361164c57600080fd5b61165b87823560208401611571565b91505092959194509250565b6000806040838503121561167a57600080fd5b61168383611481565b9150602083013567ffffffffffffffff81111561169f57600080fd5b8301601f810185136116b057600080fd5b6116bf85823560208401611571565b9150509250929050565b600080604083850312156116dc57600080fd5b6116e583611481565b91506116f360208401611481565b90509250929050565b600181811c9082168061171057607f821691505b60208210810361173057634e487b7160e01b600052602260045260246000fd5b50919050565b6020808252602d908201527f4552433732313a2063616c6c6572206973206e6f7420746f6b656e206f776e6560408201526c1c881bdc88185c1c1c9bdd9959609a1b606082015260800190565b6000600182016117a357634e487b7160e01b600052601160045260246000fd5b5060010190565b60208082526025908201527f4552433732313a207472616e736665722066726f6d20696e636f72726563742060408201526437bbb732b960d91b606082015260800190565b60208082526032908201527f4552433732313a207472616e7366657220746f206e6f6e20455243373231526560408201527131b2b4bb32b91034b6b83632b6b2b73a32b960711b606082015260800190565b60008351611853818460208801611405565b835190830190611867818360208801611405565b01949350505050565b601f8211156104f057806000526020600020601f840160051c810160208510156118975750805b601f840160051c820191505b818110156118b757600081556001016118a3565b5050505050565b815167ffffffffffffffff8111156118d8576118d861155b565b6118ec816118e684546116fc565b84611870565b6020601f82116001811461192057600083156119085750848201515b600019600385901b1c1916600184901b1784556118b7565b600084815260208120601f198516915b828110156119505787850151825560209485019460019092019101611930565b508482101561196e5786840151600019600387901b60f8161c191681555b50505050600190811b01905550565b6001600160a01b03858116825284166020820152604081018390526080606082018190526000906119b090830184611429565b9695505050505050565b6000602082840312156119cc57600080fd5b81516110a2816113d256fea2646970667358221220e284c187a8c5c5c755bbf3502e173b92efec0ba79bf4b7cac067c4186bf23c6c64736f6c634300081c0033",
  "linkReferences": {},
  "deployedLinkReferences": {}
}